:020000040800F2
:10000000385B0020890200086917000813170008F0
:1000100065170008F31500081F1D00080000000008
:10002000000000000000000000000000F1010008D6
:10003000F71500080000000035020008F519000857
:10004000A3020008A3020008A3020008A3020008FC
:10005000A3020008A3020008A3020008A3020008EC
:10006000A3020008A3020008A3020008A3020008DC
:10007000A3020008A3020008A3020008A3020008CC
:10008000A3020008A3020008A3020008A3020008BC
:10009000A3020008A3020008A3020008A3020008AC
:1000A000A3020008A3020008A3020008A30200089C
:1000B000A3020008651A0008A3020008A3020008B2
:1000C000A3020008A3020008A3020008A30200087C
:1000D000A3020008FD1A0008A3020008A3020008FA
:1000E000A3020008A3020008A3020008A30200085C
:1000F000A3020008A3020008A3020008A30200084C
:10010000A3020008A30200089D1A0008A302000829
:10011000A3020008A3020008A3020008A30200082B
:10012000A3020008A3020008A3020008A30200081B
:1001300000F002F800F04DF80AA090E8000C8244AC
:100140008344AAF10107DA4501D100F042F8AFF289
:10015000090EBAE80F0013F0010F18BFFB1A43F0A5
:1001600001031847CC410000EC410000103A24BFC5
:1001700078C878C1FAD8520724BF30C830C144BF0C
:1001800004680C607047000000230024002500264E
:10019000103A28BF78C1FBD8520728BF30C148BFEA
:1001A0000B607047662904F07680642900F0C480F3
:1001B000732900F08D84002070471FB500F0F2FC19
:1001C00004000020002103F0FBFEE0601FBD10B51D
:1001D00010BD00F0E7FD1146FFF7EFFF01F042FE12
:1001E00000F005FE03B4FFF7F2FF03BC01F0B4FD1D
:1001F000224B19680868B0E8F00F80F30988BFF354
:100200006F8F4FF0000080F311884EF00D0E704795
:100210000000000006480068006880F3088862B6A5
:1002200061B6BFF34F8FBFF36F8F00DF00BF00BF1A
:1002300008ED00E0EFF30980BFF36F8F0F4B1A68F2
:1002400020E9F00F106008B54FF0500080F31188DE
:10025000BFF34F8FBFF36F8F03F06EF84FF00000C6
:1002600080F31188BDE8084019680868B0E8F00F0D
:1002700080F30988BFF36F8F704700BF44000020F0
:10028000EFF30580704700000948804709480047A0
:10029000FEE7FEE7FEE7FEE7FEE7FEE7FEE7FEE736
:1002A000FEE7FEE704480549054A064B7047000093
:1002B000051A00083101000838550020385B00207D
:1002C0003857002038570020704700000FB4044909
:1002D00010B503AA029800F0FFFB10BC5DF814FBF8
:1002E0001400002070B50C460546012A05D0287878
:1002F000800600D5EA69002302E0012305E05B1CCB
:10030000934202D2E05C0028F9D1A869E618C01A2D
:10031000A861286A184428622846AFF3008004E0E8
:10032000D5E9012114F8010B9047B442F8D32846CF
:10033000AFF3008070BD00002DE9F04106460024B7
:1003400010687529314616A510D0AFF3008000283B
:1003500002DA404213A507E031688A0701D512A5E9
:1003600002E0490704D511A5012401E0AFF30080A4
:1003700000210A2206F1240709E0B0FBF2FCB0FBE1
:10038000F2F302FB1C00303078541846491C002858
:10039000F3D123462A463046BDE8F04100F007B9C4
:1003A000000000002D0000002B00000020000000D5
:1003B0002DE9F0474FF0000A89460446C0F820A016
:1003C0002046E1688847002876D0252806D0D4E961
:1003D00001219047206A401C2062F1E7E168204635
:1003E00000258847C4F81CA006460027C4F818A0BA
:1003F0002A2E09D0304601F0A8FC38B304EB870858
:10040000303EC8F8186019E059F8041B204604EB88
:1004100087029161E1688847012F064618D1E0699B
:10042000002820DA25F020051DE0D8F8180000EBA0
:10043000800006EB40003038C8F818002046E1681C
:100440008847064601F081FC0028EED1012F0AD032
:100450002E2E08D12046E16888477F1C0646022FD1
:1004600045F02005C4DBA069002803DA404245F0CE
:100470000105A061E80701D025F01005B6B1A6F18D
:100480004100192802D8203645F400654A46314615
:10049000204625604D46FFF785FE58B1012806D05D
:1004A000ED1D25F0070000F1080989E704E005F1DA
:1004B000040985E730468AE7206ABDE8F087032A09
:1004C00040F2308010F0030C00F0158011F8013B71
:1004D000BCF1020F624498BF11F801CB00F8013B58
:1004E00038BF11F8013BA2F1040298BF00F801CB1C
:1004F00038BF00F8013B11F0030300F0FF82083A17
:10050000C0F0088051F8043B083A51F804CBA0E849
:100510000810F5E7121D5CBF51F8043B40F8043B9E
:10052000AFF30080D20724BF11F8013B11F801CBD3
:1005300048BF11F8012B24BF00F8013B00F801CBA4
:1005400048BF00F8012B704702F0FF0343EA032283
:1005500042EA024200F006BB4FF0000200B513462B
:1005600094469646203922BFA0E80C50A0E80C50D3
:10057000B1F12001BFF4F7AF090728BFA0E80C5084
:1005800048BF0CC05DF804EB890028BF40F8042B7D
:1005900008BF704748BF20F8022B11F0804F18BFEA
:1005A00000F8012B704770477047704770472DE97E
:1005B000F0470D4699469246044600F1240801682A
:1005C000880604D5E06921F01001216000E00120D7
:1005D000A84201DD471B00E00027A1697A1902EB60
:1005E0000900081AA0612078C00602D42046AFF3A3
:1005F0000080002608E0D4E901211AF8060090479F
:10060000206A401C761C20624E45F4DB2078C00630
:100610000AD52046AFF3008006E0D4E9012130205E
:100620009047206A401C2062381EA7F10107F4DCC5
:1006300007E0D4E9012118F805009047206A401C22
:100640002062281EA5F10105F3DC2046AFF30080EF
:100650002078000602D50220BDE8F0870120FBE7E4
:1006600070472DE9FF4F0C461E464FF0FF378BB009
:10067000D2E90001DDF860800A908A46C1F30A558C
:1006800005B93D46002108464FF00000BAF1000FC1
:1006900000F4400005DA00EB80004FF4400101EA6D
:1006A00050004FEA9059B9F1010F00DDB9460A98A0
:1006B00050EA4A000ED044F61050A5F2FF354543EB
:1006C0002F14B8F1000F1ED07542291E1EDDC9F18E
:1006D00000021CE0B8F1010F4FF0000001D0302102
:1006E00003E0F24305E02154401CB042FBDB3046FE
:1006F0000022002121540B99C1F80880C1E9002093
:100700000FB0BDE8F08FBD1B6D1CDEE74A4600DA76
:10071000694206A800F0D0FA06AB93E8070003ABE5
:1007200083E8070050460A9900F0A8FB8DE807000F
:10073000A0F500501F3800900398002D09DD42F20B
:100740001F014A46084403A90390684600F007FECB
:1007500008E0A0F500504A461F3803A903906846F8
:1007600000F011FE8DE807000004000C03D04FF0EC
:10077000FF30410800E01046B8F1000F03D000221E
:10078000009215461EE0751E05D400F00FFA3032B7
:1007900062556D1EF9D5B3460122084302D00022EE
:1007A0007F1C04E02078302801D100227F1E002A1F
:1007B000099786D01DE0112D07DA00F0F7F93032E5
:1007C00062556D1C50EA0102F5D1084302D0009831
:1007D000C8B10EE00021681E05E0235C625C635432
:1007E0002254401E491C8142F7DBAB46A81B401E29
:1007F0000990002004F80B000B98099AC0F80880B3
:10080000C0E9002B7CE711264FF0000859E72DE9DD
:10081000F04F88460446D21D22F0070191B0D1E97D
:100820000001CDE90A0101F07CFA02460B98C00FE5
:1008300001D02D2007E02068810701D52B2002E0A0
:10084000202101EAC000032A099001D0072A05DB14
:1008500003464146204600F0EFF90BE12078800680
:1008600001D5E06900E00620B8F1650F814606D0A9
:10087000B8F1660F18D0B8F1670F70D131E00020E1
:10088000B9F1110F009001DB112301E009F101031F
:100890000AAA01A90CA8FFF7E4FEDDE90C70002606
:1008A00009F10105834647E001204B4600904FF0D7
:1008B00000470AAA01A90CA8FFF7D3FEDDE90DB095
:1008C0000C995D46002610B909F101000D18B9EB2D
:1008D000050003D4C0F1FF3609F10105A5EB0900BD
:1008E0002BE0B9F1010F01DA4FF001090020B9F155
:1008F000110F0090484601DD112300E003460AAACB
:1009000001A90CA8FFF7ADFEDDE90C704D460026ED
:100910008346207800070AD4AB4500DA5D4601A87B
:10092000012D04DD411911F8011C302907D04F4574
:1009300002DA17F1040F04DA012082460FE06D1E7F
:10094000EEE7002F02DCED1B3E4403E0781CA842DA
:1009500000DD7D1CB81B00F1010A4FF00047207834
:10096000000703D4AA4501DB4FF0FF3A0021B7F19D
:10097000004F0DF143088DF8431024D002202B23A3
:10098000002F01DA7F422D230A21021EA0F101006F
:1009900000DC5FB197FBF1FC97FBF1F201FB1C7CE3
:1009A00017460CF1300C08F801CDEEE7A8F1010074
:1009B00003702188090501D5452100E06521A0F1DA
:1009C000010800F8011C09980FA9A1EB0807FF1DF9
:1009D00000B10120411901EBEA70A1693844081AFD
:1009E000401EA0612078C00602D42046AFF30080EC
:1009F000099828B1D4E901219047206A401C20625F
:100A00002078C00622D52046AFF300801EE0002EDD
:100A100004DBB34502DD01A8805D00E03020D4E9AD
:100A200001219047206A401C2062761CAAF1010037
:100A30005FEA000A0AD100F0B5F8C0680168405CBE
:100A4000D4E901219047206A401C2062281EA5F1AC
:100A50000105DCDC07E0D4E9012118F8010B90471F
:100A6000206A401C2062381EA7F10107F3DC2046F3
:100A7000AFF30080032011B043E6000001694A1C77
:100A800002610878704700B58FB0CDE901310021CF
:100A9000059105497944CDE9031011466846FFF7F1
:100AA00087FC0FB000BD0000E5FFFFFF10B54369F4
:100AB00013B1AFF3008001E0FFF714FC012010BD7B
:100AC000127800F124010A7000224A700122EDE739
:100AD00011684FF0FF32E9E7074B70B50D467B44D4
:100AE000FFF7D1FF0446284600F054F910B14FF04B
:100AF000FF3070BD204670BDD712000010B5203AFF
:100B0000C0F00B80B1E81850203AA0E81850B1E8C6
:100B10001850A0E81850BFF4F5AF5FEA027C24BF7C
:100B2000B1E81850A0E8185044BF18C918C0BDE873
:100B300010405FEA827C24BF51F8043B40F8043B3C
:100B400008BF7047D20728BF31F8023B48BF11F8F1
:100B5000012B28BF20F8023B48BF00F8012B70474B
:100B60004FF000020429C0F0128010F0030C3FF493
:100B7000F5ACCCF1040CBCF1020F18BF00F8012B4E
:100B8000A8BF20F8022BA1EB0C01FFF7E7BC5FEA3E
:100B9000C17C24BF00F8012B00F8012B48BF00F8EE
:100BA000012B704700487047F854002030B5B0F171
:100BB0000A024FEA900E71F100034EEA817EB0EB1B
:100BC0000E0061EB91014FEA101E4EEA017E10EB20
:100BD0000E0041EB11114FEA102E4EEA016E10EBA0
:100BE0000E0041EB11214FEA104E4EEA014E10EB80
:100BF0000E0041EB1141401841F100014FEAD000D5
:100C000040EA41704FEAD10110EB80054FEA8104C0
:100C100044EA907444EB01046D1944EB0404521B44
:100C2000A3414FF0000348BF0A3200D530BD401C3D
:100C300041F1000130BD00002DE9F0411F4604469E
:100C400003260168072A01F4006004DB08B116A539
:100C500005E016A503E008B115A500E015A521F0F3
:100C600010002060A069C01EA0610FB1401EA061ED
:100C70002046AFF300804FB1D4E9012138469047B8
:100C8000206A401C2062C01C206206E0206AFAE74D
:100C9000D4E9012115F8010B9047761EF8D22046C1
:100CA000AFF30080BDE8F0814E414E006E616E00F2
:100CB000494E4600696E66002DE9F04781461646AA
:100CC0008AB0334878440DC88DE80D003048784428
:100CD000801C03AC0DC884E80D0041F69B3008442D
:100CE000372190FBF1F290FBF1F5A5F1800501FBB6
:100CF00012041B3C02D56442012000E00020DFF812
:100D000090A080460027FA44AAF1BE0A0DE0E00751
:100D100009D03246684607EB47010AEB810100F033
:100D200032FB8DE8070064107F1C002CEFD1184FB8
:100D30007F44AC3F18E0E80714D007EB04100DF136
:100D4000180A90E80E008AE80E00C068F04201D14F
:100D500098190890324606A903A800F014FB03ABCB
:100D600083E807006D10641C002DE4D1324669460B
:100D7000B8F1000F03A802D000F0F1FA01E000F092
:100D800002FBC9E90001C9F808200AB0BDE8F087F4
:100D900050360000007B00F080007047004870472C
:100DA000D85400207546FFF7F9FFAE4605006946A6
:100DB000534620F00700854618B020B5FFF772FAB9
:100DC000BDE820404FF000064FF000074FF000084C
:100DD0004FF0000B21F00701AC46ACE8C009ACE8CD
:100DE000C009ACE8C009ACE8C0098D4670470446AC
:100DF000AFF300802046FFF7F5F900004FF0013C0B
:100E000050F8042B51F8043B9A4221D1A2EB0C0379
:100E1000934313EACC1317D150F8042B51F8043B39
:100E20009A4215D1A2EB0C03934313EACC130BD1D6
:100E300050F8042B51F8043B9A4209D1A2EB0C0361
:100E4000934313EACC13DBD04FF00000704700BF90
:100E5000D01A01BAB1FA81F101F0180122FA01F0B9
:100E6000CB40C1F12001DBB2C0B2C01A2CFA01F3B1
:100E7000D11A914311EAC311E6D170475FEA400CE1
:100E800008BF91F0000F4FEA8C234FEAC12243EADA
:100E900051514FEA1C5018BF00F5F0404FEA3000A6
:100EA00018BF41F000415FEA6C5C00F02980BCF1A2
:100EB000FF3F08BF40F080407047130C06BF12048C
:100EC0004FF0100C4FF0000C130E04BF12020CF187
:100ED000080C130F04BF12010CF1040C930F04BF94
:100EE00092000CF1020CD30F04BF52000CF1010C64
:100EF00011464FF00002A0F11F00A0EB0C0070475C
:100F000011F0004F08BF704731F000413FF4D5AFFA
:100F10000B0C06BF09044FF0100C4FF0000C0B0E29
:100F200004BF09020CF1080C0B0F04BF09010CF1FE
:100F3000040C8B0F04BF89000CF1020CCB0F04BF13
:100F400049000CF1010CCCF12003A0EB0C0022FABB
:100F500003F302FA0CF241EA030100F101007047C9
:100F600020F07F4C80EA030023F07F47ACEB0703BF
:100F700003F57C5300F0004003F1FF032DE98049A5
:100F80004FEA154B09B44FEA144325EA0B4E24EA05
:100F900003480FF2042606EB132749083E785FEA60
:100FA000320203FB0667C7F5000707FB06F64FEAA8
:100FB00054374FEAD64606F1020607FB066CCCF121
:100FC000005C4FEA1C472CEA074C07FB06F40CFBBD
:100FD00006F504EB15464FEA961634BF00204FF095
:100FE00000404FEAD13706FB07FC4FEA1C4C0CFBD4
:100FF0000BF7D21B03FB0CF761EB07010CFB0EF7A1
:10100000B0EB074072EB17420CFB08F734BFA2EBC2
:101010000742B2EB074261EB17414FEA0C444FEA3B
:10102000910706FB07FC4FEA1C4C0CFB0BF7B0EBDF
:10103000C74072EB573203FB0CF734BFA2EBC74239
:10104000B2EBC74261EB57310CFB0EF7B0EBC700B8
:1010500072EB57720CFB08F734BFA2EBC702B2EB7E
:10106000C70261EB5771039F4FEA816141EA921118
:1010700004EBCC044FEAD1374FEA826206FB07FC4F
:1010800042EA90124FEA80604FEA1C4C0CFB0BF7CF
:10109000D21B03FB0CF761EB07010CFB0EF7B0EB67
:1010A000074072EB17420CFB08F734BFA2EB074274
:1010B000B2EB074261EB17414FEA8C554FEA9107BB
:1010C00004EB9C2406FB07FC4FEA1C4C0CFB0BF7C3
:1010D000B0EBC74072EB573203FB0CF734BFA2EB07
:1010E000C742B2EBC74261EB57310CFB0EF7B0EBD6
:1010F000C70072EB57720CFB08F734BFA2EBC702B4
:10110000B2EBC70261EB577115EB4C254FEA8161D9
:1011100041EA92114FEA82624FEAD13742EA9012D5
:1011200006FB07FC44F100044FEA80604FEA1C4CC8
:101130000CFB0BF7D21B03FB0CF761EB07010CFB5D
:101140000EF7B0EB074072EB17420CFB08F734BF09
:10115000A2EB0742B2EB074261EB174115EB1C15FE
:101160004FEA813141EA92414FEA823242EA9042AB
:101170004FEA80304FEA0C7644F1000448EA03431A
:101180004EEA0B484FF0000EB2EB080C71EB030770
:1011900024BF624639464EEB0E0E4FF0000B00188E
:1011A000524149414BEB0B0BB2EB080C71EB0307BF
:1011B0007BF1000B24BF624639464EEB0E0E4FF01A
:1011C000000B0018524149414BEB0B0BB2EB080CE2
:1011D00071EB03077BF1000B24BF624639464EEBEF
:1011E0000E0E51EA020718BF46F0010616EB0E7606
:1011F00055F1000254F1000103D5BDE88901BDE8B5
:101200000088BDE88901BDE80048B619524141EBAC
:101210000101A3F10103704780807F7E7D7C7B7A92
:101220007978777676757473727171706F6E6E6D92
:101230006C6C6B6A6A696868676666656464636338
:1012400062616160605F5F5E5E5D5D5C5C5B5B5ABE
:101250005A5959585857575656555555545453532B
:1012600052525251515050504F4F4F4E4E4D4D4D86
:101270004C4C4C4B4B4B4A4A4A49494948484847D1
:10128000474747464646454545444444444343430F
:101290004342424242414141002B26D4770021D0B3
:1012A0001CB54FEA370703B44FF010004FF01001A0
:1012B0004FF000000FBCBDE810400BF1010BBBF17B
:1012C000010F08BF5FEA170722BF12F1010211F1F7
:1012D00001014FF0004143F1000300F0004043EAF8
:1012E00000007047F9D35708DAE746EA064613F1DB
:1012F000400F4FEA16461FDD13F1200FDFBF1643E4
:101300000A46002120335B42C8D0C3F1200746EAD9
:10131000064602FA07F74FEA164646EA0706C3F101
:10132000200722FA03F201FA07F721FA03F14FF03E
:10133000000342EA0702B1E746EA020646EA064629
:101340004FEA164646EA0106BCBF46EA0646360C98
:101350004FF000034FF000024FF000019EE72DE92F
:10136000C048934630B491E8380007C831EA400CD1
:1013700048BF34EA430C03D5FFF7F2FDFFF78CFFBB
:10138000F0BCBDE800882DE9C048934630B491E830
:10139000380007C810F0804F08BF13F0804F03D10A
:1013A00000F005F8FFF778FFF0BCBDE8008820F0FA
:1013B0007F4780EA030023F07F4C07EB0C03A3F583
:1013C0007C5300F00040A3F1FE0392F0000F00F008
:1013D000B38095F0000F00F077802DE901494FEAC6
:1013E00011404FEA144621EA004800FB06FC24EABB
:1013F000064708FB06F607FB08F800FB07F718EBA3
:1014000006484CEB164C4FEA124B18EB07484FEAD4
:1014100015464CEB174022EA0B4E0BFB06FC25EA67
:1014200006470EFB06F607FB0EFE0BFB07F71EEB4F
:10143000064E4CEB164C4FF000061EEB074E4CEBE5
:10144000174B18EB0B0840F1000018EB0E0B58EB94
:10145000000840F100008F1A4FF000013CBFC94363
:10146000661B14BFB5EB040C00213CBFC943F61B3F
:101470004FEA17444EEA8E0E27EA04454FEA1C470E
:1014800004FB07622CEA074C05FB07F70CFB05F68B
:1014900004FB0CFC16EB074642EB174216EB0C461E
:1014A00042EB1C421BEB060658EB0202414146EAA6
:1014B0009E0601D5BDE80189B619524141EB0101F3
:1014C000A3F10103BDE801894FEA14454FEA114732
:1014D00024EA054621EA074C05FB07F406FB07F75B
:1014E0000CFB06F105FB0CFC11EB074144EB174428
:1014F0004FEA124711EB0C4144EB1C4422EA074C23
:1015000005FB07F206FB07F70CFB06F605FB0CFCD8
:1015100016EB074642EB174216EB0C4642EB1C4516
:101520006A1854F1000148BF7047B619524141EBA7
:101530000101A3F10103704795F0000F37D04FEA86
:1015400011424FEA144721EA024624EA074C02FB03
:1015500007F106FB07F70CFB06F402FB0CFC14EB8F
:10156000074441EB17414FEA154714EB0C4441EB9C
:101570001C4125EA074C02FB07F506FB07F70CFBAD
:1015800006F602FB0CFC16EB074645EB174516EB7F
:101590000C4645EB1C42121951F1000148BF70473F
:1015A000B619524141EB0101A3F1010370474FEA23
:1015B00014454FEA114724EA054621EA074C05FB8A
:1015C00007F106FB07F70CFB06F24FF0000605FBE0
:1015D0000CFC12EB074241EB174112EB0C4251EBB2
:1015E0001C4148BF7047921841EB0101A3F1010370
:1015F000704700BFFEE770472DE9F0410246002525
:101600000026002000230024002791F803C00CF0DE
:101610000F0591F803C00CF0100CBCF1000F03D0C3
:1016200091F802C04CEA050591F800C0BCF1000F2A
:1016300031D0146800202BE04FF0010C0CFA00F3BD
:10164000B1F800C00CEA03069E4220D183004FF09F
:101650000F0C0CFA03F7BC4305FA03FC4CEA040434
:1016600091F803C0BCF1280F06D14FF0010C0CFA21
:1016700000FCC2F814C00AE091F803C0BCF1480FA6
:1016800005D14FF0010C0CFA00FCC2F810C0401C50
:101690000828D1D31460B1F800C0BCF1FF0F34DDCD
:1016A000546800202EE000F1080C4FF0010808FA01
:1016B0000CF3B1F800C00CEA03069E4221D183006E
:1016C0004FF00F0C0CFA03F7BC4305FA03FC4CEA8D
:1016D000040491F803C0BCF1280F05D100F1080CF7
:1016E00008FA0CF8C2F8148091F803C0BCF1480F56
:1016F00007D100F1080C4FF0010808FA0CF8C2F805
:101700001080401C0828CED35460BDE8F0810161F0
:10171000704700BFFEE7000008B50121482000F037
:1017200067F82020ADF8000010208DF8030003209A
:101730008DF8020069460948FFF75EFF202107483F
:10174000FFF7E5FF2020ADF8000069460448FFF7E9
:1017500053FF20210248FFF7DAFF08BD000C0140CB
:101760000018014000BFFEE77047000070B500217F
:1017700000230F22C47804B3154C246804F4E064F9
:10178000C4F5E064210AC1F10403CA40447804FAB4
:1017900003F184781440214309010E4C0678A155C9
:1017A000047804F01F050124AC4005786D11AD00EC
:1017B00005F1E025C5F8004109E0047804F01F05B3
:1017C0000124AC40044D0678761145F8264070BDE2
:1017D0000CED00E000E400E080E100E0024901439C
:1017E000024A1160704700000000FA050CED00E0AD
:1017F00029B1064A92690243044B9A6104E0034A04
:1018000092698243014B9A617047000000100240C8
:1018100030B500210022002400232D4D6D6805F015
:101820000C0121B1042905D0082923D105E0294D57
:10183000056022E0274D05601FE0254D6D6805F429
:101840007012234D6D6805F48034022505EB924239
:101850001CB9214D554305600BE01D4D6D6805F425
:1018600000351DB11C4D5543056002E0194D55432F
:10187000056002E0174D056000BF00BF144D6D68A4
:1018800005F0F0010909154D6B5C0568DD40456008
:101890000F4D6D6805F4E061090A104D6B5C4568F9
:1018A000DD4085600A4D6D6805F46051C90A0B4D35
:1018B0006B5C4568DD40C560054D6D6805F44041D1
:1018C000890B074D6B5CC568B5FBF3F5056130BD51
:1018D0000010024000127A0000093D001A000020AA
:1018E0002A00002010B500F001F810BD0CB5002052
:1018F000019000903348006840F48030314908601E
:1019000000BF3048006800F4003000900198401C8F
:101910000190009818B90198B0F5A06FF1D129484D
:10192000006800F4003010B10120009001E00020B8
:1019300000900098012843D12348006840F010002F
:10194000214908600846006820F007000860084642
:10195000006840F0020008601A4840681949486071
:101960000846406848600846406840F48060486027
:101970000846406820F47C1048600846406840F4FF
:10198000E81048600846006840F08070086000BFBA
:101990000C48006800F000700028F9D00948406841
:1019A00020F00300074948600846406840F0020004
:1019B000486000BF0348406800F00C000828F9D1D7
:1019C0000CBD00000010024000200240042808D195
:1019D0004FF0E021096941F004014FF0E02211616C
:1019E00007E04FF0E021096921F004014FF0E02207
:1019F0001161704710B501F0B1FF012801D001F06D
:101A000095FD10BD10B51348006840F00100114964
:101A1000086008464068104908400E49486008467A
:101A200000680E4908400B4908600846006820F429
:101A3000802008600846406820F4FE0048604FF4AB
:101A40001F008860FFF74EFF4FF0006004490860F8
:101A500010BD0000001002400000FFF8FFFFF6FE7E
:101A600008ED00E010B50121064800F036F8012825
:101A700002D105A0FEF72AFC0121024800F02AF855
:101A800010BD00000004004054494D33CAE4B3F6D1
:101A90002E2E2E2E2E2E2E0D0A00000010B5012106
:101AA000064800F01AF8012802D105A0FEF70EFC46
:101AB0000121024800F00EF810BD0000000C0040AB
:101AC00054494D35CAE4B3F62E2E2E2E2E2E2E0D51
:101AD0000A000000CA430282704730B50246002067
:101AE00000230024158A05EA0103958905EA01040B
:101AF00013B10CB1012000E0002030BD10B540F260
:101B000025511D4800F04AF810B31B4800F002F9B7
:101B1000C4B21A48008800F40040C8B917480088C9
:101B200000F4804060B10A2C03D0002013490880E3
:101B300020E01248008840F400401049088019E075
:101B40000D2C06D10D48008840F480400B490880D8
:101B500010E00A480088C0F30D0009490C540748FA
:101B60000088401C0549088008460088C72801DD18
:101B70000020088010BD000000380140180000203F
:101B8000C400002021B1828942F40052828104E025
:101B900082894DF6FF731A408281704770B5024604
:101BA000002400230025002040F66A16B14200D12F
:101BB00000BFC1F3421501F01F03012606FA03F32B
:101BC000012D02D19689334006E0022D02D1168AFA
:101BD000334001E0968A33400C12012606FA04F4E1
:101BE0001688344013B10CB1012000E0002070BD14
:101BF000F0B50346002400260025002040F66A17B1
:101C0000B94200D100BF1846C1F3421401F01F06CB
:101C1000012707FA06F5012C01D10C3004E0022C53
:101C200001D1103000E014301AB107682F4307606B
:101C300002E00768AF430760F0BD00002DE9F04700
:101C400086B005460E460024A24600BFA1460027E6
:101C5000B08900B100BF2F462C8A4CF6FF700440BB
:101C6000F08804432C82AC894EF6F3100440B0880F
:101C700031890843718908430443AC81AC8A4FF62B
:101C8000FF400440B0890443AC8201A8FFF7C0FDC7
:101C90001F48874202D1DDF810A001E0DDF80CA05A
:101CA000A88900F4004040B10AEBCA0000EB0A101A
:101CB00031684900B0FBF1F807E00AEBCA0000EB1D
:101CC0000A1031688900B0FBF1F86420B8FBF0F02D
:101CD00004012009642101FB1089A88900F4004057
:101CE00040B1322000EBC900B0FBF1F000F007007A
:101CF000044308E0322000EB09106421B0FBF1F04E
:101D000000F00F0004432C8106B0BDE8F08700000E
:101D10000038014001468888C0F30800704700BFC2
:101D2000FEE7490050EAC12018BF04204A0D18BF41
:101D300040F0010040F2FF72B2EB515F08BF40F08B
:101D40000200012808BF0520704730380A2801D258
:101D5000012070470020704700BF704710B5042075
:101D6000FFF734FE104800681049B0FBF1F010494D
:101D700008700D4800680D49B0FBF1F44FF47A701B
:101D8000444301200B4908804FF0E020006940F0F7
:101D900002004FF0E021086108464461006940F00C
:101DA0000100086110BD00003000002040420F001B
:101DB000100000201200002000BF054A128802F027
:101DC0004002002AF9D0C2B2014B1B1D1A80704795
:101DD0000038014018E00D490D48006802F038F95C
:101DE0000B49086000F090FF0948006802F004F910
:101DF000044622460B4607A0FEF768FA00F0CAFF29
:101E00004FF47A7001F0E4F8E5E700000AD7233CCC
:101E10000C000020666C6F61745F6E756DB5C4D682
:101E2000B5CEAA3A20252E34660D0A0014E0002013
:101E30000A49086001200A49C1F89401C82001F04C
:101E4000C7F801200549086000200549C1F8940140
:101E50004FF4487001F0BCF8E9E70000948121429A
:101E6000000023421CB54FF44070FFF7B7FCFFF7AA
:101E700075FF4FF4E13000F0ADFEFFF74DFC074871
:101E8000012100238022CDE9001005A1074801F0BF
:101E900035FD01F0EBF900201CBD00000000002022
:101EA00073746172745F7461736B0000692B000856
:101EB0002DE9F04105460E46264807682648006889
:101EC000001D00F0D7FE50B92348006890F82C1090
:101ED0000120884021490968814320480160681C2D
:101EE000D8B9D6B11E4948681B49096888601A49A3
:101EF00082680968CA6018490968091D82685160CA
:101F000015490968091D8160154A134909684A6124
:101F100011460968491C11601AE07C190E480068D6
:101F20004460BC4207D20C480168091D0D48006896
:101F300000F0C4FE0CE008480168091D0A4800686A
:101F400000F0BCFE09480068844201D207480460E2
:101F5000BDE8F08158000020440000205C00002013
:101F60009C0400204C000020480000207400002049
:101F700010B5044600F0C8FE31480068401C3049E6
:101F800008603048006840B92E4804600846006880
:101F900001280DD100F010FA0AE02B48006838B98A
:101FA00028480068C06AE16A884201D82548046070
:101FB00026480068401C254908600846006860649F
:101FC00094F82C10012088402149096808432049D1
:101FD0000860E16A01EB81011E4A02EB8101486859
:101FE000A0608268E260211D826851608160E16AC0
:101FF00001EB8101174A02EB81026261E16A01EBA8
:102000008101144A52F82110491CE26A02EB820253
:10201000104B43F8221000F0BDFE0B48006868B179
:1020200008480068C06AE16A884207D24FF08050D1
:1020300009490860BFF34F8FBFF36F8F10BD0000D9
:1020400054000020440000206000002070000020A8
:102050005C000020CC01002004ED00E010B500F091
:1020600053FE10480068D0B90F4800F017FE0F4823
:1020700000F014FE0C480E4908600C480D49086039
:1020800000221021052001F06BFA0649086008467D
:10209000006820B108A10348006800F031FF00F09B
:1020A00079FE10BD8C000020B0040020C404002084
:1020B0008400002088000020546D72510000000050
:1020C00010B516E000F020FE0C48C068C468201D62
:1020D00000F0D0FD0A480068401E09490860094820
:1020E0000068401E0749086000F054FE204600F0DA
:1020F0005FF8044800680028E4D110BD880400207F
:10210000540000205000002070B504460D46206C9D
:1021100070B1216CE0680144E160D4E902108842AA
:1021200001D32168E1602846226CE168FEF7C7F917
:1021300070BD2DE9F04104460F4615464FF00008EA
:10214000A66B206C48B9206800282CD1A06801F04B
:1021500009FD80460020A06025E07DB93946226C4B
:102160006068FEF7ACF9216C606808446060D4E9EF
:102170000101884217D32068606014E03946226C60
:10218000E068FEF79CF9216CE068411AE160216883
:10219000E068884203D2216CA068411AE160022DF8
:1021A00001D106B1761E701CA0634046BDE8F081E7
:1021B00010B50446206B00F027FE204600F024FEF8
:1021C00010BD00000146084A126812680AB90122CF
:1021D00000E000220A600A6822B9034A1268D26845
:1021E000106800E0002070478400002030B54FF4F4
:1021F000A043174800F007042CB1C01D20F00700D1
:10220000134C041B1B1B0246124C22600024114D70
:102210006C60D018083820F007000F4C20600024B4
:102220000D4D2D686C600C4D2D682C601146441AC4
:102230004C60094C24680C60084D4C682C60084DBB
:102240004C682C604FF00044064D2C6030BD0000FF
:10225000D804002098000020A0000020A800002042
:10226000A4000020B400002000BFFFF729FF0648AB
:1022700000680128F9D94FF0805004490860BFF385
:102280004F8FBFF36F8FF0E7CC01002004ED00E02B
:102290002DE9F04106460D4617469846069C0DB9B5
:1022A000246000E02760E66325640121204601F0F8
:1022B0009BF984F850800020A064BDE8F081000004
:1022C0002DE9F05F82460F4690469B460A9E0C9C85
:1022D0004FEA8801A522206BFEF736F9A8F101002C
:1022E000216B01EB800929F0070909F0070008B903
:1022F000012000E0002028B94FF4587223A12AA041
:10230000FDF7E4FF87B1002507E0795D04F13400B3
:102310004155785D00B902E06D1C102DF5D300BF6A
:1023200000214320015502E0002084F83400202ED3
:1023300001D2012000E0002028B940F2973213A119
:1023400019A0FDF7C3FF202E00D31F26E662E66426
:1023500000202065201D00F0AEFC04F1180000F004
:10236000AAFC2461C6F12000A061646200206065BF
:1023700084F858005A465146484600F0E3FB206076
:102380000B9808B10B980460BDE8F09F4672656534
:1023900052544F53763230323131322E30305C74F9
:1023A00061736B732E6300004572726F723A25730E
:1023B0002C25640D0A00000010B5002407E004EB92
:1023C00084010F4A02EB810000F068FC641C202CA1
:1023D000F5D30C4800F062FC0B4800F05FFC0B48A2
:1023E00000F05CFC0A4800F059FC0A4800F056FC7A
:1023F00004480949086004480849086010BD000005
:10240000CC0100204C040020600400207404002053
:10241000880400209C040020480000204C0000207C
:1024200010B50146164800E0006803688B42FBD3F4
:102430000246436813448B4204D143684C682344EA
:10244000436001460A464B6813440468A34211D115
:102450000C4C03682468A34208D04B680468646885
:1024600023444B6003681B680B6005E0054B1B6849
:102470000B6001E003680B60884200D0016010BD72
:1024800098000020A00000202DE9F04104460D46F0
:1024900016461F464FF0000865602461B5420CD80F
:1024A000F01BA169884202D34FF0010811E0211D01
:1024B0000948006800F002FC0BE0BE4204D2BD42B5
:1024C00002D34FF0010804E0211D0448006800F029
:1024D000F5FB4046BDE8F081880000208400002024
:1024E00070B5054600F010FCA86B08B9012400E0A7
:1024F000002400F04FFC204670BD0000F1B50098AC
:10250000846C00262CB940F6D53220A126A0FDF718
:10251000DDFEA06BE16B884201D2012000E00020CB
:1025200028B940F6D63219A11FA0FDF7CFFEA06B47
:10253000E16B884227D294F9455000226946204633
:10254000FFF7F7FD0646681C60B9606A08B901200C
:1025500000E00020B0B904F1240001F087FB88B14D
:1025600001260FE07F2D01D0012000E0002028B9D6
:1025700040F6F63205A10CA0FDF7A8FE681C40B29B
:1025800084F8450000BF3046F8BD0000467265651E
:1025900052544F53763230323131322E30305C71FA
:1025A000756575652E6300004572726F723A25730A
:1025B0002C25640D0A00000070B505460E460E4835
:1025C0000068C068C468201D00F054FB94F828001F
:1025D00000F0040028B132462946204600F0FAF8FF
:1025E00005E094F8280000F0FE0084F8280020465A
:1025F000216A884770BD00008400002070B586B055
:102600008AE0029800280CDA03AE2EB940F20632B6
:1026100047A14EA0FDF75AFED6E90020B1689047C9
:1026200000BF0298002877DB049C606908B901208C
:1026300000E0002010B9201D00F01CFB01A800F0F4
:10264000F5F8054602980A2864D2DFE800F0630531
:10265000072E365306082F3700BF00BF00BF94F87F
:10266000280040F0010084F828000398A26981182E
:1026700003462A462046FFF707FFA8B194F8280032
:1026800000F0040038B10398A26981182A46204658
:1026900000F0A0F805E094F8280000F0FE0084F8AF
:1026A00028002046216A884735E000BF94F82800BA
:1026B00000F0FE0084F828002DE000BF94F8280008
:1026C00040F0010084F828000398A061A06908B1D7
:1026D000012000E0002028B940F2593214A11BA0CB
:1026E000FDF7F4FDA06941192B462A462046FFF765
:1026F000CBFE10E094F8280000F0020018B9204644
:1027000000F082FB05E094F8280000F0FE0084F859
:10271000280000E000BF00BF002202A90F480068A7
:1027200000F0DCFF00287FF46CAF06B070BD000045
:102730004672656552544F53763230323131322E03
:1027400030305C74696D6572732E63004572726F10
:10275000723A25732C25640D0A0000008C000020BD
:10276000F8B505460C4600F0DFFD684600F05EF85F
:102770000646009820BB44B9B54206D801F018FBC4
:1027800031462846FFF718FF1CE03CB10E480068B0
:10279000006808B9012000E000200446A91B224679
:1027A0000A48006800F0EEFB01F002FB50B94FF060
:1027B000805007490860BFF34F8FBFF36F8F01E070
:1027C00001F0F6FAF8BD0000880000208C0000201F
:1027D00004ED00E070B504460D46164604E0A0691D
:1027E00005442046216A8847A06941192B46324694
:1027F0002046FFF749FE0028F1D170BD0948006866
:10280000006808B9012000E0002020B14FF0FF303F
:102810000549086005E003480068C068006802498F
:1028200008607047480000207400002070B504461E
:1028300001F0A4F8054607480068854204D200F07C
:102840000BF80120206001E00020206001480560B5
:10285000284670BD9400002070B508E00D4800685F
:10286000C06804684FF0FF312046FFF7A5FE094815
:102870000068006808B9012000E000200028EDD0C1
:102880000448056804480068024908600248056079
:1028900070BD000084000020880000200B48006804
:1028A000401C08B9012000E0002020B9CE2208A178
:1028B00013A0FDF70BFD00BF502080F31188BFF37C
:1028C0004F8FBFF36F8F00BF00BFFEE7B80000203F
:1028D0004672656552544F53763230323131322E62
:1028E00030305C706F727461626C655C5256445338
:1028F0005C41524D5F434D335C706F72742E6300C8
:102900004572726F723A25732C25640D0A0000001F
:1029100008B500BF6846FFF755FC044620460099FD
:10292000FFF71EFFFFF76AFEF4E770B5044600F0FC
:10293000EBF994F9455019E0A06C30B12046FFF74F
:10294000DDFD88B100F01CFC0EE0606A08B90120D2
:1029500000E0002038B904F1240001F087F918B133
:1029600000F00EFC00E003E0681E45B2002DE3DC41
:1029700000BFFF2084F8450000F00CFA00F0C4F915
:1029800094F9445010E0206908B9012000E00020CB
:1029900048B904F1100001F069F908B100F0F0FB4A
:1029A000681E45B200E001E0002DECDC00BFFF2016
:1029B00084F8440000F0EEF970BD00002DE9F0410C
:1029C00004464FF0000800F0AFFC4848006808B922
:1029D000FFF70CFC464800682040002874D1002C0A
:1029E00022D004F10800A0421ED9083404F00700E8
:1029F000D8B104F00700C0F108002044A04211D96A
:102A000004F00700C0F10800044404F0070008B90E
:102A1000012000E0002040B99C2236A141A0FDF732
:102A200055FC02E0002400E00024002C4CD041487A
:102A30000068844248D8404E3046056801E02E4682
:102A40002D686868A04202D228680028F7D127487C
:102A50000068854238D0306800F108082868306086
:102A60006868001B102813D92F1907F0070008B950
:102A7000012000E0002020B9CF221EA129A0FDF7EF
:102A800025FC6868001B78606C603846FFF7C8FC5E
:102A9000284968680968081A2649086008460068D5
:102AA00026490968884203D2224800682349086001
:102AB0000F4968680968084368600020286020485A
:102AC0000068401C1E49086001F072F908F0070018
:102AD00008B9012000E0002028B94FF4887205A150
:102AE00010A0FDF7F3FB4046BDE8F081A0000020F8
:102AF000B40000204672656552544F53763230322E
:102B00003131322E30305C706F727461626C655C92
:102B10004D656D4D616E675C686561705F342E63F5
:102B2000000000004572726F723A25732C25640D07
:102B30000A000000A400002098000020A800002047
:102B4000AC000020001F4FF080730360001F21F0D5
:102B500001030360001F034B036014380260203838
:102B6000704700009D2800081CB5044600F0CCF812
:102B70000D48022100233222CDE900100BA10E489E
:102B800000F0BCFE0D48032100233222CDE90010E5
:102B90000BA10E4800F0B2FE0D48006800F056FA96
:102BA00000F0F8F81CBD0000040000206C656430E3
:102BB0005F7461736B000000D51D000808000020E1
:102BC0006C6564315F7461736B0000002D1E00083A
:102BD0000000002010B586B00446012144F2040034
:102BE000FEF706FE4FF40070ADF8140003208DF8D8
:102BF000160018208DF8170005A91C48FEF7FCFCEC
:102C00004FF48060ADF8140004208DF8170005A97A
:102C10001648FEF7F1FC25208DF8000003208DF802
:102C200001008DF8020001208DF803006846FEF7D0
:102C30009DFD01940020ADF80800ADF80A00ADF844
:102C40000C00ADF810000C20ADF80E0001A90848EA
:102C5000FEF7F4FF012240F225510548FEF7C8FFB8
:102C600001210348FEF78EFF06B010BD00080140A9
:102C70000038014001460A69D1E901309860D1E984
:102C8000010358605068884201D188685060002074
:102C900008611068401E10601068704700F108015C
:102CA00041604FF0FF31816000F10801C1600161B6
:102CB00000210160704700210161704710B5024694
:102CC0000B685C1C0CB9106907E002F1080000E019
:102CD0004068446824689C42FAD944684C604C6857
:102CE000A160886041600A611468641C146010BDB2
:102CF00042684A6093688B6093685960916008618C
:102D000003685B1C0360704710B500BF502080F360
:102D10001188BFF34F8FBFF36F8F00BF0B48006860
:102D2000401C0A4908600846006801280DD108487F
:102D30000068C0B208B9012000E0002028B940F2C4
:102D4000731204A10FA0FDF7C1FA10BDB800002056
:102D500004ED00E04672656552544F5376323032CE
:102D60003131322E30305C706F727461626C655C30
:102D7000525644535C41524D5F434D335C706F7209
:102D8000742E63004572726F723A25732C25640DA0
:102D90000A00000010B50B48006828B94FF4BD7256
:102DA00009A115A0FDF792FA06480068401E0549E2
:102DB00008600846006820B9002080F3118800BF31
:102DC00000BF10BDB80000204672656552544F53D5
:102DD000763230323131322E30305C706F72746145
:102DE000626C655C525644535C41524D5F434D33B7
:102DF0005C706F72742E63004572726F723A257345
:102E00002C25640D0A00000070B506463546002EDC
:102E10003AD0083D2C461D4960680968084008B151
:102E2000012000E0002028B94FF4927218A124A0DC
:102E3000FDF74CFA206808B9012000E0002028B90D
:102E400040F2251212A11EA0FDF740FA0F4960685A
:102E500009680840C0B12068B0B90C4960680968C9
:102E60008843606000F060FA1949606809680844A6
:102E7000174908602046FFF7D3FA16480068401C3F
:102E80001449086000F094FF70BD0000B4000020F9
:102E90004672656552544F53763230323131322E9C
:102EA00030305C706F727461626C655C4D656D4D45
:102EB000616E675C686561705F342E6300000000BE
:102EC0004572726F723A25732C25640D0A0000005A
:102ED000A4000020B000002000204FF0E021086195
:102EE0008861064800684FF47A71B0FBF1F0401E2B
:102EF0004FF0E02148610720086170473000002052
:102F00002DE9F04106460F462EB940F6C82211A120
:102F100017A0FDF7DBF90025BFB1002412E0184827
:102F200000EBC4004068B04203D1154800EBC40573
:102F30000AE035B9124850F8340010B9104800EBD7
:102F4000C405641C082CEAD300BF0DB12F606E606D
:102F5000BDE8F0814672656552544F537632303287
:102F60003131322E30305C71756575652E6300002D
:102F70004572726F723A25732C25640D0A000000A9
:102F80008C0100202DE9F04105460E4617462C46DF
:102F9000FFF7BAFE94F94400401C10B9002084F8F1
:102FA000440094F94500401C10B9002084F8450005
:102FB000FFF7F0FEA06B28B93A46314604F1240031
:102FC00000F012F92046FFF7B0FCBDE8F0810000E8
:102FD00070B504460025ACB10F48006808B901205F
:102FE00000E0002028B940F249520CA112A0FDF7E0
:102FF0006DF900F099F900212046FEF759FF00F025
:10300000D7FE05463DB94FF080500F490860BFF329
:103010004F8FBFF36F8F70BD8000002046726565D3
:1030200052544F53763230323131322E30305C745C
:1030300061736B732E6300004572726F723A257371
:103040002C25640D0A00000004ED00E070B5054673
:10305000FFF75AFE15B92F48006800E028460446DD
:10306000201DFFF707FE78B9E06A00EB80002A49CF
:1030700051F8200040B994F82C10012088402749CD
:103080000968814325480160A06A18B104F118005D
:10309000FFF7F0FD22480068401C214908601D48E8
:1030A0000068844209D1211D1E48FFF721FE1E48F9
:1030B0000068401C1C49086006E01C480068401E6F
:1030C0001A490860FFF79AFBFFF764FE1148006891
:1030D000844202D02046FFF76BF815480068C0B163
:1030E0000C480068844214D11248006808B90120D5
:1030F00000E0002028B940F2DC420FA115A0FDF746
:10310000E5F84FF0805017490860BFF34F8FBFF3C9
:103110006F8F70BD44000020CC0100205C000020B7
:10312000700000208804002050000020540000207F
:1031300060000020800000204672656552544F53A5
:10314000763230323131322E30305C7461736B73D1
:103150002E6300004572726F723A25732C25640D40
:103160000A00000004ED00E003490968016003491A
:1031700009684160704700006C0000205800002082
:1031800001200149086070476800002070B50446BE
:103190000D462CB940F61C4207A10EA0FDF796F88B
:1031A0001048016818312046FFF788FD01212846A4
:1031B000FEF77EFE70BD00004672656552544F53A7
:1031C000763230323131322E30305C7461736B7351
:1031D0002E6300004572726F723A25732C25640DC0
:1031E0000A0000004400002070B504460E46154653
:1031F0002CB940F6524211A117A0FDF767F860689C
:1032000019490968C8611849826809680A6216493B
:103210000968183182685160134909681831816062
:10322000114909688C622168491C21600DB14FF079
:10323000FF3629463046FEF73BFE70BD4672656597
:1032400052544F53763230323131322E30305C743A
:1032500061736B732E6300004572726F723A25734F
:103260002C25640D0A000000440000201CB51B48FA
:1032700000210B468222CDE9001019A11A4800F066
:103280003DFB0446012C02D100F05EFE0446012CF9
:1032900015D100BF502080F31188BFF34F8FBFF3CB
:1032A0006F8F00BF4FF0FF301049086001201049B8
:1032B000086000200F49086000F096F80BE0601CE1
:1032C00008B1012000E0002028B94FF404620AA1EF
:1032D00010A0FCF7FBFF134800681CBD780000201D
:1032E00049444C4500000000692200087400002099
:1032F00060000020580000204672656552544F530C
:10330000763230323131322E30305C7461736B730F
:103310002E6300004572726F723A25732C25640D7E
:103320000A0000007C00002002480068401C01499F
:10333000086070478000002010B51B48006818B175
:1033400001201A4908602DE000201849086018483B
:103350000068B0FA80F0C0F11F0404EB8400154946
:1033600051F8200008B1012000E0002028B940F603
:10337000024211A117A0FCF7A9FF04EB84010D4A3A
:1033800002EB810041684968416000F10801426830
:103390008A4202D14168496841604168C968114A5E
:1033A000116000BF10BD00008000002068000020F8
:1033B0005C000020CC0100204672656552544F53DA
:1033C000763230323131322E30305C7461736B734F
:1033D0002E6300004572726F723A25732C25640DBE
:1033E0000A000000440000201CB53B4C2046007839
:1033F0000190FF20214608700846007800909DF853
:10340000000000F0F0009DF80010884201D101207A
:1034100000E0002028B940F21F1230A13BA0FCF7C9
:1034200055FF9DF8000000F050003C49087007204F
:103430003B49086009E03A480068401E3849086086
:103440009DF800004006000E00909DF8000000F07E
:1034500080008028EFD032480068C0F107000428BF
:1034600001D1012000E0002028B940F233121BA155
:1034700026A0FCF72BFF2A480068C0F107000428AB
:1034800001D1012000E0002028B94FF49E7213A161
:103490001EA0FCF71BFF22480068000220490860BC
:1034A0000846008800F4E06008600B490198087045
:1034B0001C48006840F470001A490860084600681B
:1034C00040F070400860FFF707FD002016490860D3
:1034D000FCF7A0FE00201CBD00E400E0467265651C
:1034E00052544F53763230323131322E30305C709C
:1034F0006F727461626C655C525644535C41524D0C
:103500005F434D335C706F72742E63004572726F4F
:10351000723A25732C25640D0A000000BC000020BF
:10352000C000002020ED00E0B800002010B500BF72
:10353000502080F31188BFF34F8FBFF36F8F00BF10
:1035400000F022FA18B14FF080500449086000BF23
:10355000002080F3118800BF10BD000004ED00E0E2
:103560002DE9F84305460E4617460024E5B1601ED6
:10357000B0FBF5F0B04217D305FB06F010F1550F84
:1035800012D805FB06F909F15400FFF717FA0446B3
:103590008CB1A04608F154083B46424631462846C5
:1035A0000094FEF775FE06E02CB94FF4E37203A118
:1035B00009A0FCF78BFE2046BDE8F88346726565DE
:1035C00052544F53763230323131322E30305C71BA
:1035D000756575652E6300004572726F723A2573CA
:1035E0002C25640D0A0000002DE9F04105460E4629
:1035F00001272C462CB94FF488722CA132A0FCF77D
:1036000065FE002C42D0E06B00283FD04FF0FF3128
:10361000E06BB1FBF0F0216C884237D3FFF774FB0D
:10362000D4E90F12206801FB0200A0600020A06313
:1036300020686060E06B401E226C216800FB021174
:10364000E160FF2084F8440084F845009EB92069B9
:1036500008B9012000E00020A8B904F1100000F032
:1036600005FB80B14FF080501B490860BFF34F8FBE
:10367000BFF36F8F07E004F11000FFF70FFB04F1B9
:103680002400FFF70BFBFFF785FB00E000270FB1DD
:10369000012000E0002028B940F2451203A10AA051
:1036A000FCF714FE3846BDE8F081000046726565FF
:1036B00052544F53763230323131322E30305C71C9
:1036C000756575652E6300004572726F723A2573D9
:1036D0002C25640D0A00000004ED00E02DE9F741FF
:1036E00083B005460E464FF000082C462CB940F238
:1036F00051524CA152A0FCF7E9FD0EB9206C08B95B
:10370000012000E0002028B940F2555245A14CA00C
:10371000FCF7DCFD00F022F908B9059808B9012092
:1037200000E0002028B940F25A523EA144A0FCF724
:10373000CDFD00BFFFF7E8FAA76BF7B13146204691
:10374000FEF7E2FC781EA063206908B9012000E0C2
:10375000002060B904F1100000F088FA38B14FF091
:1037600080503B490860BFF34F8FBFF36F8FFFF767
:1037700011FB012006B0BDE8F081059818B9FFF7EC
:1037800009FB0020F6E7B8F1000F04D101A8FFF70C
:10379000EBFC4FF00108FFF7FDFAFFF7C5FDFFF75F
:1037A000B3FA94F94400401C10B9002084F8440096
:1037B00094F94500401C10B9002084F84500FFF73B
:1037C000E9FA05A901A800F045F8F0B92046FEF78E
:1037D00087FEA0B104F124000599FFF7D7FC20462D
:1037E000FFF7A3F800F0E4FA0028A3D14FF08050CF
:1037F00017490860BFF34F8FBFF36F8F9AE72046DA
:10380000FFF793F800F0D4FA94E72046FFF78DF81D
:1038100000F0CEFA2046FEF763FE00288AD0002092
:10382000A8E700004672656552544F537632303235
:103830003131322E30305C71756575652E63000054
:103840004572726F723A25732C25640D0A000000D0
:1038500004ED00E070B505460C462DB940F6FD427A
:1038600019A120A0FCF732FD2CB940F6FE4216A1AA
:103870001CA0FCF72BFDFFF747FA1E480368686899
:103880001A1A2068401C08B9002619E01A4928684D
:103890000968884206D06868984203D8012600204B
:1038A00020600DE02068904207D92068801A2060CF
:1038B0002846FFF759FC002602E000202060012680
:1038C000FFF768FA304670BD4672656552544F5333
:1038D000763230323131322E30305C7461736B733A
:1038E0002E6300004572726F723A25732C25640DA9
:1038F0000A000000580000206C0000202DE9FF4F56
:1039000085B0804689461746DDE912ABB800FFF75F
:1039100055F8064656B15C20FFF750F804460CB146
:10392000266304E03046FFF76FFA00E000247CB124
:103930000020CDE900ABCDE902403A464946404679
:10394000089BFEF7BDFC2046FEF712FB012501E0B7
:103950004FF0FF35284609B0BDE8F08F05490968EA
:1039600009B9012005E00449096809B9022000E00D
:103970000020704760000020800000200149086896
:1039800070470000580000202DE9F0414FF000087A
:103990005E48006800287DD15D480068451C5C4891
:1039A0000560EDB95B480068006808B9012000E0D7
:1039B000002028B940F6C72257A15EA0FCF786FC7C
:1039C000544807685F480068524908605D480760CE
:1039D0005D480068401C5C490860FEF70FFF00BFAF
:1039E0005A480068854277D300BF4A48006800689B
:1039F00008B9012000E0002020B14FF0FF3053490A
:103A0000086068E043480068C068C4686668B542FA
:103A100002D24E4806605EE06069D4E902128A6014
:103A2000D4E902214A60211D42688A4201D1E1683D
:103A30004160002262610168491E0160A06A98B17C
:103A4000A06AD4E907128A60D4E907214A6004F128
:103A5000180142688A4201D1216A41600022A262B3
:103A60000168491E016000BF94F82C1001208840B5
:103A700037490968084336490860E16A01EB81016A
:103A8000344A02EB81014868A0608268E260211D2F
:103A9000826800E032E051608160E16A01EB8101FF
:103AA0002C4A02EB81026261E16A01EB8101294A41
:103AB00052F82110491CE26A02EB8202254B43F8BE
:103AC00022102549E06A0968C96A88428DD34FF0FF
:103AD00001088AE700E000BF1F480068C06A00EBE9
:103AE00080001C4951F82000012801D94FF001083D
:103AF0001A48006808B14FF0010804E0184800684F
:103B0000401C174908604046BDE8F0818000002055
:103B100058000020480000204672656552544F53FB
:103B2000763230323131322E30305C7461736B73E7
:103B30002E6300004572726F723A25732C25640D56
:103B40000A0000004C0000206C00002074000020DF
:103B50005C000020CC010020440000206800002010
:103B60006400002070B505462C460026002D5ED06E
:103B700030480068844201D1012000E0002028B9CB
:103B800041F24F022CA133A0FCF7A0FB206D28B915
:103B900041F2500228A12FA0FCF798FB206D401E97
:103BA0002065E16CE06A884241D0206D00283ED15A
:103BB000201DFFF75FF840B994F82C1001208840D1
:103BC00028490968814327480160E06CE062E06AA7
:103BD000C0F12000A06194F82C10012088402149F8
:103BE000096808431F490860E16A01EB81011E4A28
:103BF00002EB81014868A0608268E260211D826852
:103C000051608160E16A01EB8101174A02EB810298
:103C10006261E16A01EB8101134A52F82110491CEB
:103C2000E26A02EB8202104B43F822100126304672
:103C300070BD0000440000204672656552544F5329
:103C4000763230323131322E30305C7461736B73C6
:103C50002E6300004572726F723A25732C25640D35
:103C60000A0000005C000020CC01002070B5064670
:103C7000F068C4682CB940F682423CA142A0FCF72F
:103C800025FBA06AD4E907128A60D4E907214A60BB
:103C900004F1180142688A4201D1216A4160002280
:103CA000A2620168491E01603B48006800283DD1BE
:103CB0006069D4E902128A60D4E902214A60211DB8
:103CC00042688A4201D1E168416000226261016874
:103CD000491E016094F82C10012088402F49096882
:103CE00008432E490860E16A01EB81012C4A02EB8E
:103CF00081014868A0608268E260211D826851608D
:103D00008160E16A01EB8101254A02EB8102626177
:103D1000E16A01EB8101224A52F82110491CE26A52
:103D200002EB82021E4B43F8221010E01D49486846
:103D3000E0618268226204F118018268516081604A
:103D4000184AA26211460968491C116000BF164951
:103D5000E06A0968C96A884204D90125012013492B
:103D6000086000E00025284670BD000046726565C9
:103D700052544F53763230323131322E30305C74FF
:103D800061736B732E6300004572726F723A257314
:103D90002C25640D0A000000800000205C0000203B
:103DA000CC010020740400204400002068000020A2
:103DB00070B5002400265048006828B940F6B302C8
:103DC0004EA155A0FCF782FAFEF79EFF4A48006814
:103DD000401E494908600846006800287ED15248C4
:103DE000006800287AD05BE05048C068C468A06AC8
:103DF000D4E907128A60D4E907214A6004F1180166
:103E000042688A4201D1216A41600022A2620168AF
:103E1000491E01606069D4E902128A60D4E9022176
:103E20004A60211D42688A4201D1E1684160002256
:103E300062610168491E016094F82C1001208840DD
:103E40003B49096808433A490860E16A01EB81018E
:103E5000384A02EB81014868A0608268E260211D57
:103E6000826851608160E16A01EB8101314A02EBB5
:103E700081026261E16A01EB81012E4A52F8211050
:103E8000491CE26A02EB82022A4B43F822102A49BB
:103E9000E06A0968C96A884202D30120274908609C
:103EA0002248006808B9012000E0002000289BD0CB
:103EB0000CB1FEF7A3FC2248056865B100BFFFF70F
:103EC00063FD10B101201D4908606D1E002DF6D163
:103ED00000201B4908601948006800E008E038B17C
:103EE0000126300717490860BFF34F8FBFF36F8F6C
:103EF000FEF750FF304670BD8000002046726565B9
:103F000052544F53763230323131322E30305C746D
:103F100061736B732E6300004572726F723A257382
:103F20002C25640D0A0000005400002074040020B9
:103F30005C000020CC01002044000020680000202C
:103F40006400002004ED00E01CB50024FEF786F8B4
:103F50000B48006858B10B481F2100234FF48272B0
:103F6000CDE9001008A10A48FFF7C8FC04462CB9A7
:103F700040F2191207A10EA0FCF7A8F920461CBDBB
:103F80008C00002090000020546D72205376630056
:103F9000112900084672656552544F53763230320B
:103FA0003131322E30305C74696D6572732E63006E
:103FB0004572726F723A25732C25640D0A00000059
:103FC00010B500290AD00878002807D005487844A1
:103FD000FCF714FF002801D0002010BD02487844EF
:103FE00010BD0000820300007A0300000808A0F55D
:103FF00000114FEA3101704743004FEAD30C4FEAFA
:104000003C0C43401FBF40070CF1605113F0FE4FC2
:1040100070471CF0006F03D100200CF00041704786
:104020000CF0004343EA507010B540EACC0000F0B9
:1040300071F800BF000000924FEA0001FFF7D6BF01
:104040004FF000414FF00000A1F500217047000043
:1040500090EA010F48BF81F0004100F1AE80421AA2
:104060003CBF801A89184FEAD0524FF07F4C1CEAAF
:10407000410FA2EBD15318BF9CEA026F00F03B80C6
:104080004FF0004C4CEA00204CEA012121FA03FCDD
:1040900010EB0C0C1ED202F1FF325FEA1C2040EB49
:1040A000C25038BF70471CF07F0F4FEA400C18BF5A
:1040B000BCF17F4F38BF7047C3F12003994008BF60
:1040C00020F00100BCF17F4F38BF7047A0F1C04025
:1040D00000F066B84FEA3C00000A40EBC25028BF2F
:1040E0001CF0FF0F4FEA400CE6D018BFBCF17F4F29
:1040F00038BF7047EAE79CEA026F05D010EA5C0F10
:1041000008BF00F00040704710B500F003F800BF92
:1041100064FBBE3E0EF1020E2EF0030E5EF8044B61
:10412000244204D44FEA4102B2F17F4F11D84FEA42
:104130004003B3F17F4F0CD80ED14FEAD07CB2F1DF
:104140007F4F0CEB4C0C0CF1020C08BF4CEBD17CFC
:1041500004E04FF0080C01E04FEAD17C0CEB4C037B
:1041600024FA03F404F00704B4F1040C06D20EEBB5
:10417000840CBDE810404CF0010C6047DFE80CF007
:10418000070802024FF00040A0F5800010BD08466D
:10419000420018BFD2F1807288BF00F0004010BD0D
:1041A000FF2141EAD050C0057047000090EA010F9E
:1041B00048BF81F000413FF552AF421A04D882F067
:1041C0000042A0EB020011444FEAD0524FF07F4C66
:1041D0001CEA410FA2EBD15318BF9CEA026F4AD0F0
:1041E0004FF0004C4CEA00204CEA012121FA03FC7C
:1041F000B0EB0C0C0FD412F0FE0F36D05FEA4C007F
:104200001DD5001240EBC25038BF70471CF03F0F65
:1042100018BF70470BE0A2F101025FEA1C2040EBDF
:10422000C25038BF70471CF07F0F18BF7047C3F1F2
:104230002003994014BF401E20F001007047800801
:104240004FEA122308BF7047B0FA80FCA2EB0C02C1
:10425000CCF1280C60FA0CF093EA122F04BF00EBAB
:10426000C25070474FEAC3707047130A5FEADC1010
:1042700008BF7047F6E79CEA026F04D010EA5C0FB3
:1042800008BF0020704710B5FFF744FF40DFF63E3F
:1042900081F000407047FCF7BABA0000024000000D
:1042A000000000A00000000005400000000000C861
:1042B000000000000C4000000000409C00000000D6
:1042C000194000000020BCBE000000003440000087
:1042D000BFC91B8E00000004B5400000504BCFD07A
:1042E0006607E2CF010000006C4100003E8251AA47
:1042F000DFEEA73401000000D9420000DCB5A0E2E7
:104300003A301F97FFFFFFFFB4450000FD25A0C80E
:10431000E9A3C14FFFFFFFFFFF3F00000000008047
:1043200000000000FF3F00000000008000000000CF
:104330006C43000800000020C40000006C0100086D
:1043400030440008C4000020745A000088010008AE
:104350001C00000043000000F8FFFFFF0C000000FD
:104360000E0000000F0000002E0000000000000002
:1043700000000000000000000AD7233C00000000FD
:104380000000000000000000000001020304010220
:1043900003040607080902040608000000A24A04F4
:1043A00000000000000000000102030406070809E5
:1043B00000000000000000000000000000000000FD
:1043C00000000000000000000000000000000000ED
:1043D00000000000000000000000000000000000DD
:1043E00000000000000000001F00000000000000AE
:1043F00000000000000000000000000000000000BD
:1044000000000000000000000000000000000000AC
:10441000000000000000000000000000000000009C
:1044200000000000AAAAAAAA0000000000000000E4
:040000050800028964
:00000001FF
